{
  "_format": "hh-sol-artifact-1",
  "contractName": "NFT",
  "sourceName": "contracts/nft.sol",
  "abi": [
    {
      "inputs": [],
      "stateMutability": "nonpayable",
      "type": "constructor"
    },
    {
      "anonymous": false,
      "inputs": [
        {
          "indexed": true,
          "internalType": "address",
          "name": "owner",
          "type": "address"
        },
        {
          "indexed": true,
          "internalType": "address",
          "name": "approved",
          "type": "address"
        },
        {
          "indexed": true,
          "internalType": "uint256",
          "name": "tokenId",
          "type": "uint256"
        }
      ],
      "name": "Approval",
      "type": "event"
    },
    {
      "anonymous": false,
      "inputs": [
        {
          "indexed": true,
          "internalType": "address",
          "name": "owner",
          "type": "address"
        },
        {
          "indexed": true,
          "internalType": "address",
          "name": "operator",
          "type": "address"
        },
        {
          "indexed": false,
          "internalType": "bool",
          "name": "approved",
          "type": "bool"
        }
      ],
      "name": "ApprovalForAll",
      "type": "event"
    },
    {
      "anonymous": false,
      "inputs": [
        {
          "indexed": true,
          "internalType": "address",
          "name": "from",
          "type": "address"
        },
        {
          "indexed": true,
          "internalType": "address",
          "name": "to",
          "type": "address"
        },
        {
          "indexed": true,
          "internalType": "uint256",
          "name": "tokenId",
          "type": "uint256"
        }
      ],
      "name": "Transfer",
      "type": "event"
    },
    {
      "inputs": [
        {
          "internalType": "address",
          "name": "to",
          "type": "address"
        },
        {
          "internalType": "uint256",
          "name": "tokenId",
          "type": "uint256"
        }
      ],
      "name": "approve",
      "outputs": [],
      "stateMutability": "nonpayable",
      "type": "function"
    },
    {
      "inputs": [
        {
          "internalType": "address",
          "name": "owner",
          "type": "address"
        }
      ],
      "name": "balanceOf",
      "outputs": [
        {
          "internalType": "uint256",
          "name": "",
          "type": "uint256"
        }
      ],
      "stateMutability": "view",
      "type": "function"
    },
    {
      "inputs": [
        {
          "internalType": "uint256",
          "name": "tokenId",
          "type": "uint256"
        }
      ],
      "name": "getApproved",
      "outputs": [
        {
          "internalType": "address",
          "name": "",
          "type": "address"
        }
      ],
      "stateMutability": "view",
      "type": "function"
    },
    {
      "inputs": [
        {
          "internalType": "address",
          "name": "owner",
          "type": "address"
        },
        {
          "internalType": "address",
          "name": "operator",
          "type": "address"
        }
      ],
      "name": "isApprovedForAll",
      "outputs": [
        {
          "internalType": "bool",
          "name": "",
          "type": "bool"
        }
      ],
      "stateMutability": "view",
      "type": "function"
    },
    {
      "inputs": [],
      "name": "mintNFT",
      "outputs": [],
      "stateMutability": "nonpayable",
      "type": "function"
    },
    {
      "inputs": [],
      "name": "name",
      "outputs": [
        {
          "internalType": "string",
          "name": "",
          "type": "string"
        }
      ],
      "stateMutability": "view",
      "type": "function"
    },
    {
      "inputs": [
        {
          "internalType": "uint256",
          "name": "tokenId",
          "type": "uint256"
        }
      ],
      "name": "ownerOf",
      "outputs": [
        {
          "internalType": "address",
          "name": "",
          "type": "address"
        }
      ],
      "stateMutability": "view",
      "type": "function"
    },
    {
      "inputs": [
        {
          "internalType": "address",
          "name": "from",
          "type": "address"
        },
        {
          "internalType": "address",
          "name": "to",
          "type": "address"
        },
        {
          "internalType": "uint256",
          "name": "tokenId",
          "type": "uint256"
        }
      ],
      "name": "safeTransferFrom",
      "outputs": [],
      "stateMutability": "nonpayable",
      "type": "function"
    },
    {
      "inputs": [
        {
          "internalType": "address",
          "name": "from",
          "type": "address"
        },
        {
          "internalType": "address",
          "name": "to",
          "type": "address"
        },
        {
          "internalType": "uint256",
          "name": "tokenId",
          "type": "uint256"
        },
        {
          "internalType": "bytes",
          "name": "data",
          "type": "bytes"
        }
      ],
      "name": "safeTransferFrom",
      "outputs": [],
      "stateMutability": "nonpayable",
      "type": "function"
    },
    {
      "inputs": [
        {
          "internalType": "address",
          "name": "operator",
          "type": "address"
        },
        {
          "internalType": "bool",
          "name": "approved",
          "type": "bool"
        }
      ],
      "name": "setApprovalForAll",
      "outputs": [],
      "stateMutability": "nonpayable",
      "type": "function"
    },
    {
      "inputs": [
        {
          "internalType": "bytes4",
          "name": "interfaceId",
          "type": "bytes4"
        }
      ],
      "name": "supportsInterface",
      "outputs": [
        {
          "internalType": "bool",
          "name": "",
          "type": "bool"
        }
      ],
      "stateMutability": "view",
      "type": "function"
    },
    {
      "inputs": [],
      "name": "symbol",
      "outputs": [
        {
          "internalType": "string",
          "name": "",
          "type": "string"
        }
      ],
      "stateMutability": "view",
      "type": "function"
    },
    {
      "inputs": [
        {
          "internalType": "uint256",
          "name": "tokenId",
          "type": "uint256"
        }
      ],
      "name": "tokenURI",
      "outputs": [
        {
          "internalType": "string",
          "name": "",
          "type": "string"
        }
      ],
      "stateMutability": "view",
      "type": "function"
    },
    {
      "inputs": [
        {
          "internalType": "address",
          "name": "from",
          "type": "address"
        },
        {
          "internalType": "address",
          "name": "to",
          "type": "address"
        },
        {
          "internalType": "uint256",
          "name": "tokenId",
          "type": "uint256"
        }
      ],
      "name": "transferFrom",
      "outputs": [],
      "stateMutability": "nonpayable",
      "type": "function"
    }
  ],
  "bytecode": "0x60806040523480156200001157600080fd5b506040518060400160405280600981526020017f5371756172654e465400000000000000000000000000000000000000000000008152506040518060400160405280600681526020017f535155415245000000000000000000000000000000000000000000000000000081525081600090816200008f91906200043b565b508060019081620000a191906200043b565b505050620000ef6040518060400160405280601281526020017f4465706c6f79696e6720636f6e74726163740000000000000000000000000000815250620000f560201b62000ad11760201c565b620005d5565b62000195816040516024016200010c9190620005b1565b6040516020818303038152906040527f41304fac000000000000000000000000000000000000000000000000000000007bffffffffffffffffffffffffffffffffffffffffffffffffffffffff19166020820180517bffffffffffffffffffffffffffffffffffffffffffffffffffffffff83818316178352505050506200019860201b60201c565b50565b60008151905060006a636f6e736f6c652e6c6f679050602083016000808483855afa5050505050565b600081519050919050565b7f4e487b7100000000000000000000000000000000000000000000000000000000600052604160045260246000fd5b7f4e487b7100000000000000000000000000000000000000000000000000000000600052602260045260246000fd5b600060028204905060018216806200024357607f821691505b602082108103620002595762000258620001fb565b5b50919050565b60008190508160005260206000209050919050565b60006020601f8301049050919050565b600082821b905092915050565b600060088302620002c37fffffffffffffffffffffffffffffffffffffffffffffffffffffffffffffffff8262000284565b620002cf868362000284565b95508019841693508086168417925050509392505050565b6000819050919050565b6000819050919050565b60006200031c620003166200031084620002e7565b620002f1565b620002e7565b9050919050565b6000819050919050565b6200033883620002fb565b62000350620003478262000323565b84845462000291565b825550505050565b600090565b6200036762000358565b620003748184846200032d565b505050565b5b818110156200039c57620003906000826200035d565b6001810190506200037a565b5050565b601f821115620003eb57620003b5816200025f565b620003c08462000274565b81016020851015620003d0578190505b620003e8620003df8562000274565b83018262000379565b50505b505050565b600082821c905092915050565b60006200041060001984600802620003f0565b1980831691505092915050565b60006200042b8383620003fd565b9150826002028217905092915050565b6200044682620001c1565b67ffffffffffffffff811115620004625762000461620001cc565b5b6200046e82546200022a565b6200047b828285620003a0565b600060209050601f831160018114620004b357600084156200049e578287015190505b620004aa85826200041d565b8655506200051a565b601f198416620004c3866200025f565b60005b82811015620004ed57848901518255600182019150602085019450602081019050620004c6565b868310156200050d578489015162000509601f891682620003fd565b8355505b6001600288020188555050505b505050505050565b600082825260208201905092915050565b60005b838110156200055357808201518184015260208101905062000536565b60008484015250505050565b6000601f19601f8301169050919050565b60006200057d82620001c1565b62000589818562000522565b93506200059b81856020860162000533565b620005a6816200055f565b840191505092915050565b60006020820190508181036000830152620005cd818462000570565b905092915050565b612ba480620005e56000396000f3fe608060405234801561001057600080fd5b50600436106100ea5760003560e01c80636352211e1161008c578063a22cb46511610066578063a22cb46514610249578063b88d4fde14610265578063c87b56dd14610281578063e985e9c5146102b1576100ea565b80636352211e146101cb57806370a08231146101fb57806395d89b411461022b576100ea565b8063095ea7b3116100c8578063095ea7b31461016d57806314f710fe1461018957806323b872dd1461019357806342842e0e146101af576100ea565b806301ffc9a7146100ef57806306fdde031461011f578063081812fc1461013d575b600080fd5b610109600480360381019061010491906119b9565b6102e1565b6040516101169190611a01565b60405180910390f35b6101276103c3565b6040516101349190611aac565b60405180910390f35b61015760048036038101906101529190611b04565b610455565b6040516101649190611b72565b60405180910390f35b61018760048036038101906101829190611bb9565b61049b565b005b6101916105b2565b005b6101ad60048036038101906101a89190611bf9565b610639565b005b6101c960048036038101906101c49190611bf9565b610699565b005b6101e560048036038101906101e09190611b04565b6106b9565b6040516101f29190611b72565b60405180910390f35b61021560048036038101906102109190611c4c565b61076a565b6040516102229190611c88565b60405180910390f35b610233610821565b6040516102409190611aac565b60405180910390f35b610263600480360381019061025e9190611ccf565b6108b3565b005b61027f600480360381019061027a9190611e44565b6108c9565b005b61029b60048036038101906102969190611b04565b61092b565b6040516102a89190611aac565b60405180910390f35b6102cb60048036038101906102c69190611ec7565b610a3d565b6040516102d89190611a01565b60405180910390f35b60007f80ac58cd000000000000000000000000000000000000000000000000000000007bffffffffffffffffffffffffffffffffffffffffffffffffffffffff1916827bffffffffffffffffffffffffffffffffffffffffffffffffffffffff191614806103ac57507f5b5e139f000000000000000000000000000000000000000000000000000000007bffffffffffffffffffffffffffffffffffffffffffffffffffffffff1916827bffffffffffffffffffffffffffffffffffffffffffffffffffffffff1916145b806103bc57506103bb82610b6a565b5b9050919050565b6060600080546103d290611f36565b80601f01602080910402602001604051908101604052809291908181526020018280546103fe90611f36565b801561044b5780601f106104205761010080835404028352916020019161044b565b820191906000526020600020905b81548152906001019060200180831161042e57829003601f168201915b5050505050905090565b600061046082610bd4565b6004600083815260200190815260200160002060009054906101000a900473ffffffffffffffffffffffffffffffffffffffff169050919050565b60006104a6826106b9565b90508073ffffffffffffffffffffffffffffffffffffffff168373ffffffffffffffffffffffffffffffffffffffff1603610516576040517f08c379a000000000000000000000000000000000000000000000000000000000815260040161050d90611fd9565b60405180910390fd5b8073ffffffffffffffffffffffffffffffffffffffff16610535610c1f565b73ffffffffffffffffffffffffffffffffffffffff16148061056457506105638161055e610c1f565b610a3d565b5b6105a3576040517f08c379a000000000000000000000000000000000000000000000000000000000815260040161059a9061206b565b60405180910390fd5b6105ad8383610c27565b505050565b60006105be6007610ce0565b90506105ca3382610cee565b610609816040518060400160405280601d81526020017f68747470733a2f2f6a736f6e6b65657065722e636f6d2f622f544f5a4c000000815250610d0c565b61062c604051806060016040528060298152602001612b46602991398233610d79565b6106366007610e18565b50565b61064a610644610c1f565b82610e2e565b610689576040517f08c379a0000000000000000000000000000000000000000000000000000000008152600401610680906120fd565b60405180910390fd5b610694838383610ec3565b505050565b6106b4838383604051806020016040528060008152506108c9565b505050565b6000806002600084815260200190815260200160002060009054906101000a900473ffffffffffffffffffffffffffffffffffffffff169050600073ffffffffffffffffffffffffffffffffffffffff168173ffffffffffffffffffffffffffffffffffffffff1603610761576040517f08c379a000000000000000000000000000000000000000000000000000000000815260040161075890612169565b60405180910390fd5b80915050919050565b60008073ffffffffffffffffffffffffffffffffffffffff168273ffffffffffffffffffffffffffffffffffffffff16036107da576040517f08c379a00000000000000000000000000000000000000000000000000000000081526004016107d1906121fb565b60405180910390fd5b600360008373ffffffffffffffffffffffffffffffffffffffff1673ffffffffffffffffffffffffffffffffffffffff168152602001908152602001600020549050919050565b60606001805461083090611f36565b80601f016020809104026020016040519081016040528092919081815260200182805461085c90611f36565b80156108a95780601f1061087e576101008083540402835291602001916108a9565b820191906000526020600020905b81548152906001019060200180831161088c57829003601f168201915b5050505050905090565b6108c56108be610c1f565b8383611129565b5050565b6108da6108d4610c1f565b83610e2e565b610919576040517f08c379a0000000000000000000000000000000000000000000000000000000008152600401610910906120fd565b60405180910390fd5b61092584848484611295565b50505050565b606061093682610bd4565b600060066000848152602001908152602001600020805461095690611f36565b80601f016020809104026020016040519081016040528092919081815260200182805461098290611f36565b80156109cf5780601f106109a4576101008083540402835291602001916109cf565b820191906000526020600020905b8154815290600101906020018083116109b257829003601f168201915b5050505050905060006109e06112f1565b905060008151036109f5578192505050610a38565b600082511115610a2a578082604051602001610a12929190612257565b60405160208183030381529060405292505050610a38565b610a3384611308565b925050505b919050565b6000600560008473ffffffffffffffffffffffffffffffffffffffff1673ffffffffffffffffffffffffffffffffffffffff16815260200190815260200160002060008373ffffffffffffffffffffffffffffffffffffffff1673ffffffffffffffffffffffffffffffffffffffff16815260200190815260200160002060009054906101000a900460ff16905092915050565b610b6781604051602401610ae59190611aac565b6040516020818303038152906040527f41304fac000000000000000000000000000000000000000000000000000000007bffffffffffffffffffffffffffffffffffffffffffffffffffffffff19166020820180517bffffffffffffffffffffffffffffffffffffffffffffffffffffffff8381831617835250505050611370565b50565b60007f01ffc9a7000000000000000000000000000000000000000000000000000000007bffffffffffffffffffffffffffffffffffffffffffffffffffffffff1916827bffffffffffffffffffffffffffffffffffffffffffffffffffffffff1916149050919050565b610bdd81611399565b610c1c576040517f08c379a0000000000000000000000000000000000000000000000000000000008152600401610c1390612169565b60405180910390fd5b50565b600033905090565b816004600083815260200190815260200160002060006101000a81548173ffffffffffffffffffffffffffffffffffffffff021916908373ffffffffffffffffffffffffffffffffffffffff160217905550808273ffffffffffffffffffffffffffffffffffffffff16610c9a836106b9565b73ffffffffffffffffffffffffffffffffffffffff167f8c5be1e5ebec7d5bd14f71427d1e84f3dd0314c0f7b2291e5b200ac8c7c3b92560405160405180910390a45050565b600081600001549050919050565b610d08828260405180602001604052806000815250611405565b5050565b610d1582611399565b610d54576040517f08c379a0000000000000000000000000000000000000000000000000000000008152600401610d4b906122ed565b60405180910390fd5b80600660008481526020019081526020016000209081610d7491906124b9565b505050565b610e13838383604051602401610d919392919061258b565b6040516020818303038152906040527f1c7ec448000000000000000000000000000000000000000000000000000000007bffffffffffffffffffffffffffffffffffffffffffffffffffffffff19166020820180517bffffffffffffffffffffffffffffffffffffffffffffffffffffffff8381831617835250505050611370565b505050565b6001816000016000828254019250508190555050565b600080610e3a836106b9565b90508073ffffffffffffffffffffffffffffffffffffffff168473ffffffffffffffffffffffffffffffffffffffff161480610e7c5750610e7b8185610a3d565b5b80610eba57508373ffffffffffffffffffffffffffffffffffffffff16610ea284610455565b73ffffffffffffffffffffffffffffffffffffffff16145b91505092915050565b8273ffffffffffffffffffffffffffffffffffffffff16610ee3826106b9565b73ffffffffffffffffffffffffffffffffffffffff1614610f39576040517f08c379a0000000000000000000000000000000000000000000000000000000008152600401610f309061263b565b60405180910390fd5b600073ffffffffffffffffffffffffffffffffffffffff168273ffffffffffffffffffffffffffffffffffffffff1603610fa8576040517f08c379a0000000000000000000000000000000000000000000000000000000008152600401610f9f906126cd565b60405180910390fd5b610fb3838383611460565b610fbe600082610c27565b6001600360008573ffffffffffffffffffffffffffffffffffffffff1673ffffffffffffffffffffffffffffffffffffffff168152602001908152602001600020600082825461100e919061271c565b925050819055506001600360008473ffffffffffffffffffffffffffffffffffffffff1673ffffffffffffffffffffffffffffffffffffffff16815260200190815260200160002060008282546110659190612750565b92505081905550816002600083815260200190815260200160002060006101000a81548173ffffffffffffffffffffffffffffffffffffffff021916908373ffffffffffffffffffffffffffffffffffffffff160217905550808273ffffffffffffffffffffffffffffffffffffffff168473ffffffffffffffffffffffffffffffffffffffff167fddf252ad1be2c89b69c2b068fc378daa952ba7f163c4a11628f55a4df523b3ef60405160405180910390a4611124838383611465565b505050565b8173ffffffffffffffffffffffffffffffffffffffff168373ffffffffffffffffffffffffffffffffffffffff1603611197576040517f08c379a000000000000000000000000000000000000000000000000000000000815260040161118e906127d0565b60405180910390fd5b80600560008573ffffffffffffffffffffffffffffffffffffffff1673ffffffffffffffffffffffffffffffffffffffff16815260200190815260200160002060008473ffffffffffffffffffffffffffffffffffffffff1673ffffffffffffffffffffffffffffffffffffffff16815260200190815260200160002060006101000a81548160ff0219169083151502179055508173ffffffffffffffffffffffffffffffffffffffff168373ffffffffffffffffffffffffffffffffffffffff167f17307eab39ab6107e8899845ad3d59bd9653f200f220920489ca2b5937696c31836040516112889190611a01565b60405180910390a3505050565b6112a0848484610ec3565b6112ac8484848461146a565b6112eb576040517f08c379a00000000000000000000000000000000000000000000000000000000081526004016112e290612862565b60405180910390fd5b50505050565b606060405180602001604052806000815250905090565b606061131382610bd4565b600061131d6112f1565b9050600081511161133d5760405180602001604052806000815250611368565b80611347846115f1565b604051602001611358929190612257565b6040516020818303038152906040525b915050919050565b60008151905060006a636f6e736f6c652e6c6f679050602083016000808483855afa5050505050565b60008073ffffffffffffffffffffffffffffffffffffffff166002600084815260200190815260200160002060009054906101000a900473ffffffffffffffffffffffffffffffffffffffff1673ffffffffffffffffffffffffffffffffffffffff1614159050919050565b61140f8383611751565b61141c600084848461146a565b61145b576040517f08c379a000000000000000000000000000000000000000000000000000000000815260040161145290612862565b60405180910390fd5b505050565b505050565b505050565b600061148b8473ffffffffffffffffffffffffffffffffffffffff1661192a565b156115e4578373ffffffffffffffffffffffffffffffffffffffff1663150b7a026114b4610c1f565b8786866040518563ffffffff1660e01b81526004016114d694939291906128d7565b6020604051808303816000875af192505050801561151257506040513d601f19601f8201168201806040525081019061150f9190612938565b60015b611594573d8060008114611542576040519150601f19603f3d011682016040523d82523d6000602084013e611547565b606091505b50600081510361158c576040517f08c379a000000000000000000000000000000000000000000000000000000000815260040161158390612862565b60405180910390fd5b805181602001fd5b63150b7a0260e01b7bffffffffffffffffffffffffffffffffffffffffffffffffffffffff1916817bffffffffffffffffffffffffffffffffffffffffffffffffffffffff1916149150506115e9565b600190505b949350505050565b606060008203611638576040518060400160405280600181526020017f3000000000000000000000000000000000000000000000000000000000000000815250905061174c565b600082905060005b6000821461166a57808061165390612965565b915050600a8261166391906129dc565b9150611640565b60008167ffffffffffffffff81111561168657611685611d19565b5b6040519080825280601f01601f1916602001820160405280156116b85781602001600182028036833780820191505090505b5090505b60008514611745576001826116d1919061271c565b9150600a856116e09190612a0d565b60306116ec9190612750565b60f81b81838151811061170257611701612a3e565b5b60200101907effffffffffffffffffffffffffffffffffffffffffffffffffffffffffffff1916908160001a905350600a8561173e91906129dc565b94506116bc565b8093505050505b919050565b600073ffffffffffffffffffffffffffffffffffffffff168273ffffffffffffffffffffffffffffffffffffffff16036117c0576040517f08c379a00000000000000000000000000000000000000000000000000000000081526004016117b790612ab9565b60405180910390fd5b6117c981611399565b15611809576040517f08c379a000000000000000000000000000000000000000000000000000000000815260040161180090612b25565b60405180910390fd5b61181560008383611460565b6001600360008473ffffffffffffffffffffffffffffffffffffffff1673ffffffffffffffffffffffffffffffffffffffff16815260200190815260200160002060008282546118659190612750565b92505081905550816002600083815260200190815260200160002060006101000a81548173ffffffffffffffffffffffffffffffffffffffff021916908373ffffffffffffffffffffffffffffffffffffffff160217905550808273ffffffffffffffffffffffffffffffffffffffff16600073ffffffffffffffffffffffffffffffffffffffff167fddf252ad1be2c89b69c2b068fc378daa952ba7f163c4a11628f55a4df523b3ef60405160405180910390a461192660008383611465565b5050565b6000808273ffffffffffffffffffffffffffffffffffffffff163b119050919050565b6000604051905090565b600080fd5b600080fd5b60007fffffffff0000000000000000000000000000000000000000000000000000000082169050919050565b61199681611961565b81146119a157600080fd5b50565b6000813590506119b38161198d565b92915050565b6000602082840312156119cf576119ce611957565b5b60006119dd848285016119a4565b91505092915050565b60008115159050919050565b6119fb816119e6565b82525050565b6000602082019050611a1660008301846119f2565b92915050565b600081519050919050565b600082825260208201905092915050565b60005b83811015611a56578082015181840152602081019050611a3b565b60008484015250505050565b6000601f19601f8301169050919050565b6000611a7e82611a1c565b611a888185611a27565b9350611a98818560208601611a38565b611aa181611a62565b840191505092915050565b60006020820190508181036000830152611ac68184611a73565b905092915050565b6000819050919050565b611ae181611ace565b8114611aec57600080fd5b50565b600081359050611afe81611ad8565b92915050565b600060208284031215611b1a57611b19611957565b5b6000611b2884828501611aef565b91505092915050565b600073ffffffffffffffffffffffffffffffffffffffff82169050919050565b6000611b5c82611b31565b9050919050565b611b6c81611b51565b82525050565b6000602082019050611b876000830184611b63565b92915050565b611b9681611b51565b8114611ba157600080fd5b50565b600081359050611bb381611b8d565b92915050565b60008060408385031215611bd057611bcf611957565b5b6000611bde85828601611ba4565b9250506020611bef85828601611aef565b9150509250929050565b600080600060608486031215611c1257611c11611957565b5b6000611c2086828701611ba4565b9350506020611c3186828701611ba4565b9250506040611c4286828701611aef565b9150509250925092565b600060208284031215611c6257611c61611957565b5b6000611c7084828501611ba4565b91505092915050565b611c8281611ace565b82525050565b6000602082019050611c9d6000830184611c79565b92915050565b611cac816119e6565b8114611cb757600080fd5b50565b600081359050611cc981611ca3565b92915050565b60008060408385031215611ce657611ce5611957565b5b6000611cf485828601611ba4565b9250506020611d0585828601611cba565b9150509250929050565b600080fd5b600080fd5b7f4e487b7100000000000000000000000000000000000000000000000000000000600052604160045260246000fd5b611d5182611a62565b810181811067ffffffffffffffff82111715611d7057611d6f611d19565b5b80604052505050565b6000611d8361194d565b9050611d8f8282611d48565b919050565b600067ffffffffffffffff821115611daf57611dae611d19565b5b611db882611a62565b9050602081019050919050565b82818337600083830152505050565b6000611de7611de284611d94565b611d79565b905082815260208101848484011115611e0357611e02611d14565b5b611e0e848285611dc5565b509392505050565b600082601f830112611e2b57611e2a611d0f565b5b8135611e3b848260208601611dd4565b91505092915050565b60008060008060808587031215611e5e57611e5d611957565b5b6000611e6c87828801611ba4565b9450506020611e7d87828801611ba4565b9350506040611e8e87828801611aef565b925050606085013567ffffffffffffffff811115611eaf57611eae61195c565b5b611ebb87828801611e16565b91505092959194509250565b60008060408385031215611ede57611edd611957565b5b6000611eec85828601611ba4565b9250506020611efd85828601611ba4565b9150509250929050565b7f4e487b7100000000000000000000000000000000000000000000000000000000600052602260045260246000fd5b60006002820490506001821680611f4e57607f821691505b602082108103611f6157611f60611f07565b5b50919050565b7f4552433732313a20617070726f76616c20746f2063757272656e74206f776e6560008201527f7200000000000000000000000000000000000000000000000000000000000000602082015250565b6000611fc3602183611a27565b9150611fce82611f67565b604082019050919050565b60006020820190508181036000830152611ff281611fb6565b9050919050565b7f4552433732313a20617070726f76652063616c6c6572206973206e6f7420746f60008201527f6b656e206f776e6572206e6f7220617070726f76656420666f7220616c6c0000602082015250565b6000612055603e83611a27565b915061206082611ff9565b604082019050919050565b6000602082019050818103600083015261208481612048565b9050919050565b7f4552433732313a2063616c6c6572206973206e6f7420746f6b656e206f776e6560008201527f72206e6f7220617070726f766564000000000000000000000000000000000000602082015250565b60006120e7602e83611a27565b91506120f28261208b565b604082019050919050565b60006020820190508181036000830152612116816120da565b9050919050565b7f4552433732313a20696e76616c696420746f6b656e2049440000000000000000600082015250565b6000612153601883611a27565b915061215e8261211d565b602082019050919050565b6000602082019050818103600083015261218281612146565b9050919050565b7f4552433732313a2061646472657373207a65726f206973206e6f74206120766160008201527f6c6964206f776e65720000000000000000000000000000000000000000000000602082015250565b60006121e5602983611a27565b91506121f082612189565b604082019050919050565b60006020820190508181036000830152612214816121d8565b9050919050565b600081905092915050565b600061223182611a1c565b61223b818561221b565b935061224b818560208601611a38565b80840191505092915050565b60006122638285612226565b915061226f8284612226565b91508190509392505050565b7f45524337323155524953746f726167653a2055524920736574206f66206e6f6e60008201527f6578697374656e7420746f6b656e000000000000000000000000000000000000602082015250565b60006122d7602e83611a27565b91506122e28261227b565b604082019050919050565b60006020820190508181036000830152612306816122ca565b9050919050565b60008190508160005260206000209050919050565b60006020601f8301049050919050565b600082821b905092915050565b60006008830261236f7fffffffffffffffffffffffffffffffffffffffffffffffffffffffffffffffff82612332565b6123798683612332565b95508019841693508086168417925050509392505050565b6000819050919050565b60006123b66123b16123ac84611ace565b612391565b611ace565b9050919050565b6000819050919050565b6123d08361239b565b6123e46123dc826123bd565b84845461233f565b825550505050565b600090565b6123f96123ec565b6124048184846123c7565b505050565b5b818110156124285761241d6000826123f1565b60018101905061240a565b5050565b601f82111561246d5761243e8161230d565b61244784612322565b81016020851015612456578190505b61246a61246285612322565b830182612409565b50505b505050565b600082821c905092915050565b600061249060001984600802612472565b1980831691505092915050565b60006124a9838361247f565b9150826002028217905092915050565b6124c282611a1c565b67ffffffffffffffff8111156124db576124da611d19565b5b6124e58254611f36565b6124f082828561242c565b600060209050601f8311600181146125235760008415612511578287015190505b61251b858261249d565b865550612583565b601f1984166125318661230d565b60005b8281101561255957848901518255600182019150602085019450602081019050612534565b868310156125765784890151612572601f89168261247f565b8355505b6001600288020188555050505b505050505050565b600060608201905081810360008301526125a58186611a73565b90506125b46020830185611c79565b6125c16040830184611b63565b949350505050565b7f4552433732313a207472616e736665722066726f6d20696e636f72726563742060008201527f6f776e6572000000000000000000000000000000000000000000000000000000602082015250565b6000612625602583611a27565b9150612630826125c9565b604082019050919050565b6000602082019050818103600083015261265481612618565b9050919050565b7f4552433732313a207472616e7366657220746f20746865207a65726f2061646460008201527f7265737300000000000000000000000000000000000000000000000000000000602082015250565b60006126b7602483611a27565b91506126c28261265b565b604082019050919050565b600060208201905081810360008301526126e6816126aa565b9050919050565b7f4e487b7100000000000000000000000000000000000000000000000000000000600052601160045260246000fd5b600061272782611ace565b915061273283611ace565b925082820390508181111561274a576127496126ed565b5b92915050565b600061275b82611ace565b915061276683611ace565b925082820190508082111561277e5761277d6126ed565b5b92915050565b7f4552433732313a20617070726f766520746f2063616c6c657200000000000000600082015250565b60006127ba601983611a27565b91506127c582612784565b602082019050919050565b600060208201905081810360008301526127e9816127ad565b9050919050565b7f4552433732313a207472616e7366657220746f206e6f6e20455243373231526560008201527f63656976657220696d706c656d656e7465720000000000000000000000000000602082015250565b600061284c603283611a27565b9150612857826127f0565b604082019050919050565b6000602082019050818103600083015261287b8161283f565b9050919050565b600081519050919050565b600082825260208201905092915050565b60006128a982612882565b6128b3818561288d565b93506128c3818560208601611a38565b6128cc81611a62565b840191505092915050565b60006080820190506128ec6000830187611b63565b6128f96020830186611b63565b6129066040830185611c79565b8181036060830152612918818461289e565b905095945050505050565b6000815190506129328161198d565b92915050565b60006020828403121561294e5761294d611957565b5b600061295c84828501612923565b91505092915050565b600061297082611ace565b91507fffffffffffffffffffffffffffffffffffffffffffffffffffffffffffffffff82036129a2576129a16126ed565b5b600182019050919050565b7f4e487b7100000000000000000000000000000000000000000000000000000000600052601260045260246000fd5b60006129e782611ace565b91506129f283611ace565b925082612a0257612a016129ad565b5b828204905092915050565b6000612a1882611ace565b9150612a2383611ace565b925082612a3357612a326129ad565b5b828206905092915050565b7f4e487b7100000000000000000000000000000000000000000000000000000000600052603260045260246000fd5b7f4552433732313a206d696e7420746f20746865207a65726f2061646472657373600082015250565b6000612aa3602083611a27565b9150612aae82612a6d565b602082019050919050565b60006020820190508181036000830152612ad281612a96565b9050919050565b7f4552433732313a20746f6b656e20616c7265616479206d696e74656400000000600082015250565b6000612b0f601c83611a27565b9150612b1a82612ad9565b602082019050919050565b60006020820190508181036000830152612b3e81612b02565b905091905056fe4e465420772f2049442025732063726561646f207061726120656c206164647265737320746f202573a264697066735822122095d2e8bcfb40b09172e77ad083931c4110d6659e155c73e6ef9caac088f09cbf64736f6c63430008110033",
  "linkReferences": {},
  "deployedLinkReferences": {}
}